:100000000C94A1050C94C9050C94C9050C94C90560
:100010000C94C9050C94C9050C94C9050C94C90528
:100020000C94C9050C94C9050C94B10F0C942310C1
:100030000C94C9050C94C9050C94C9050C94C90508
:100040000C94C9050C94C9050C94C9050C94C905F8
:100050000C94C9050C94C9050C94C9050C94890726
:100060000C94C9050C94C9050C94C9050C94C905D8
:100070000C94C9050C94C9050C94C9050C94C905C8
:100080000C94D3070C94C9050C94C9050C94C905AC
:100090000C94C9050C94C9050C94C9050C94C905A8
:1000A0000C94C9050C94C9050C94C905F0F89C8EF4
:1000B0008783878E9CF8F00000FEFF030303030391
:1000C000070EFCF80000FEFF0303030303070EFC0A
:1000D000F80000FFFF00000000000000FFFF00002C
:1000E000FEFF8383838383C7EE7C380000F8FC0E19
:1000F00007030303070EFCF800003F7FE0C0808089
:10010000C0E07F3FFFFF01010101010101FFFF008E
:1001100000FFFF0C0C0C0C1C3E77E3C100007FFFBE
:10012000C0C0C0C0C0E0703F1F00001F3F70E0C0F3
:10013000C0C0E0703F1F00007FFFC1C1C1C1C1E36B
:10014000773E1C00001F3F70E0C0C0C0E0703F1F42
:10015000000000000001FFFF01000000D5F08D1439
:10016000A1C881CFD9F1AF20001C22414141221CFE
:1001700000001C3E2E321C000000001C1C1C000055
:1001800000081436413614080077776B146B7777C4
:10019000001C1C6363631C1C006058464146586089
:1001A0000000081C3E1C0800002A491C771C492A34
:1001B0000000411C771C4100002A081C141C082A5E
:1001C0000000E0F0381C8EC66623333333333333FC
:1001D00013131303030303030303030303030303BF
:1001E00003030303030303030303030303030303DF
:1001F00003030303030303030303030303030303CF
:1002000003030303030303030303030303030303BE
:1002100003030303030303030303030303030303AE
:10022000030303030303030303030303030303039E
:1002300003030303030303030306060E1C38F0E065
:1002400000FFFF0000FF7F00000000000000000032
:10025000000000000000000000FCFC8C8C8CF8709A
:100260000000FCFC000000000000E0F0381C0C0C5A
:100270000C1C38F0E00000E0F0F8FCFCFCFC1C1862
:10028000F0E00000FCFC8C8C8CF870000C0CFCFC8A
:100290000C0C0000FCFC8C8C8C8C8C0C0070F08C9A
:1002A0008C8C303000007CFEFEFE7C0000000000E4
:1002B000000000000000000000000000000000FF3F
:1002C000FFFFFF0000010000000000000000000030
:1002D0000000000000000000001F1F1919190F0680
:1002E00000001F1F18181818181803070E1C1818DC
:1002F000181C0E0703000003070F1F1919191E0E03
:10030000070300001F1F01010100000018181F1F34
:10031000181800001F1F19191919191800040C19B1
:1003200019190F06000010397D3910000000000077
:10033000000000000000000000000000000000FFBE
:10034000FFFFFF00000000000000000000000000B0
:10035000000000000000000000000000000000009D
:1003600000E01008080810E00000E0F07090E000E5
:1003700000E0E0E0000040A0100810A0400000B83D
:10038000B858A058B8B80000E0E0181818E0E0002D
:100390000000C0300830C000000040E0F0E0400045
:1003A000000000000000000000000000000000004D
:1003B000000000000000000000000000000000FF3E
:1003C000FFFFFF0000000000000000000000000030
:1003D000000000000000000000000000000000001D
:1003E0000000010202020100000000010101000002
:1003F00000000000000000000102010000000003F6
:1004000003030003030300000000030303000000D4
:1004100000030202020202030000000001000000CB
:1004200000000000000000000000000000000000CC
:100430000000000000000000000000C0F00000FF0D
:10044000FF1FFFE08000000000000000000000002F
:100450000000000000000000000000FC44447C009C
:1004600000F8808080F80000B8B8E8D80000FE18D6
:100470000808F800000000000000000008FE8800E6
:1004800000F8888888F80000000000000000FC44A4
:10049000447C00000000FE000000E0949494FC0006
:1004A0003CA0A0B0FC000000000000000000000024
:1004B000000080808080808080C0603F1F80E0FFDF
:1004C0001F00000103070E0C0C1818181818181834
:1004D000181818181818181818181818181818189C
:1004E000181818181818181818181818181818188C
:1004F000181818181818181818181818181818187C
:10050000181818181818181818181818181818186B
:10051000181818181818181818181818181818185B
:10052000181818181818181818181818181818194A
:100530001919191919191919180C0C0E07030100AA
:1005400000000000000000000000000000000000AB
:10055000000000000000000000000000000000009B
:10056000000000000000000000000000000000008B
:10057000000000000000000000000000000000007B
:10058000000000000000000000000000000000006B
:10059000000000000000000000000000000000005B
:1005A000000000000000000000000000000000004B
:1005B000000000000000000000000000000000003B
:1005C0000000000000003E5B4F5B3E3E6B4F6B3E09
:1005D0001C3E7C3E1C183C7E3C181C577D571C1C46
:1005E0005E7F5E1C00183C1800FFE7C3E7FF0018A1
:1005F000241800FFE7DBE7FF30483A060E2629798A
:100600002926407F050507407F05253F5A3CE73CEA
:100610005A7F3E1C1C08081C1C3E7F14227F22149B
:100620005F5F005F5F06097F017F006689956A60F2
:100630006060606094A2FFA29408047E0408102009
:100640007E201008082A1C08081C2A08081E101002
:1006500010100C1E0C1E0C30383E3830060E3E0EAC
:1006600006000000000000005F0000000700070017
:10067000147F147F14242A7F2A12231308646236FD
:10068000495620500008070300001C224100004189
:10069000221C002A1C7F1C2A08083E0808008070C3
:1006A00030000808080808000060600020100804F6
:1006B000023E5149453E00427F4000724949494649
:1006C0002141494D331814127F1027454545393CC7
:1006D0004A494931412111090736494949364649B4
:1006E00049291E00001400000040340000000814D6
:1006F000224114141414140041221408020159094F
:10070000063E415D594E7C1211127C7F49494936A3
:100710003E414141227F4141413E7F494949417F1C
:10072000090909013E414151737F0808087F0041D2
:100730007F41002040413F017F081422417F40401B
:1007400040407F021C027F7F0408107F3E414141F0
:100750003E7F090909063E4151215E7F091929465C
:10076000264949493203017F01033F4040403F1F72
:100770002040201F3F4038403F63140814630304A7
:100780007804036159494D43007F41414102040807
:100790001020004141417F040201020440404040DA
:1007A00040000307080020545478407F2844443810
:1007B0003844444428384444287F3854545418005A
:1007C000087E090218A4A49C787F080404780044D9
:1007D0007D40002040403D007F1028440000417FC4
:1007E00040007C047804787C08040478384444444D
:1007F00038FC1824241818242418FC7C0804040845
:10080000485454542404043F44243C4040207C1C5D
:100810002040201C3C4030403C44281028444C9050
:1008200090907C4464544C440008364100000077AA
:100830000000004136080002010204023C26232683
:100840003C1EA1A161123A4040207A3854545559B7
:1008500021555579412154547841215554784020EF
:10086000545579400C1E5272123955555559395408
:1008700054545939555454580000457C41000245A0
:100880007D420001457C40F0292429F0F0282528EC
:10089000F07C545545002054547C547C0A097F490F
:1008A00032494949323248484832324A4848303A57
:1008B0004141217A3A42402078009DA0A07D3944F0
:1008C0004444393D4040403D3C24FF2424487E4977
:1008D00043662B2FFC2F2BFF0929F620C0887E09A9
:1008E0000320545479410000447D413048484A3245
:1008F000384040227A007A0A0A727D0D19317D262D
:1009000029292F28262929292630484D4020380812
:1009100008080808080808382F10C8ACBA2F102893
:1009200034FA00007B000008142A142222142A142E
:10093000089500220095AA005500AAAA55AA55AA12
:10094000000000FF00101010FF00141414FF00102E
:1009500010FF00FF1010F010F0141414FC00141419
:10096000F700FF0000FF00FF1414F404FC14141738
:10097000101F10101F101F1414141F00101010F05F
:10098000000000001F101010101F10101010F010A9
:10099000000000FF101010101010101010FF1000B9
:1009A0000000FF140000FF00FF00001F10170000F0
:1009B000FC04F414141710171414F404F40000FFCA
:1009C00000F714141414141414F700F71414141763
:1009D0001410101F101F141414F4141010F010F041
:1009E00000001F101F0000001F14000000FC140076
:1009F00000F010F01010FF10FF141414FF1410106A
:100A0000101F00000000F010FFFFFFFFFFF0F0F0EC
:100A1000F0F0FFFFFF0000000000FFFF0F0F0F0FBF
:100A20000F38444438447C2A2A3E147E02020606CB
:100A3000027E027E0263554941633844443C0440CF
:100A40007E201E2006027E020299A5E7A5991C2A97
:100A5000492A1C4C7201724C304A4D4D3030487856
:100A60004830BC625A463D3E494949007E01010179
:100A70007E2A2A2A2A2A44445F444440514A444058
:100A800040444A51400000FF0103E080FF0000089D
:100A9000086B6B083612362436060F090F06000065
:100AA00018180000001010003040FF0101001F0165
:100AB000011E00191D1712003C3C3C3C00000000C8
:100AC000000102040810204080080B00020202010D
:100AD00000090400000102020000052400100105C5
:100AE00024010101042402060524060001070581F2
:100AF0000310004009040100020A0000000705027B
:100B000002400000070583024000000403090412AC
:100B1000010002EF0201404123368000010102037F
:100B20000141726475696E6F204C4C4300417264E0
:100B300075696E6F204C656F6E6172646F000A1983
:100B4000F51811241FBECFEFDAE0DEBFCDBF12E0F3
:100B5000A0E0B1E0EEE1FCE302C005900D92A63802
:100B6000B107D9F728E0A6E8B2E001C01D92AF3383
:100B7000B207E1F715E0C0EAD5E004C02197FE0115
:100B80000E94F01BCF39D107C9F70E9453120C9471
:100B9000021E0C940000CF92DF92EF92FF920F930F
:100BA0001F93CF93DF936C017A018B01C0E0D0E0FB
:100BB000CE15DF0589F0D8016D918D01D601ED913B
:100BC000FC910190F081E02DC6010995892B11F46B
:100BD0007E0102C02196ECCFC701DF91CF911F911A
:100BE0000F91FF90EF90DF90CF9008958091620376
:100BF000E0916003F0916103882349F0CF010296F0
:100C00009093610380936003859194910895CF013F
:100C1000029690936103809360038081918108958F
:100C2000CF92DF92EF92FF920F931F93CF93DF93B8
:100C30000E94F605811520E8920761F48091710009
:100C40008D7F809371001092910046984798109282
:100C50005F038BC021E020935F03813020E892077F
:100C600051F480915D0390915E03909361038093B2
:100C700060030E94F60597FD05C020915C032223C6
:100C800009F43FC020915B0321113BC021E0209378
:100C90006303EC01DF77209769F481E080936403BC
:100CA00046983FE9C32E3FE0D32EE12CF12CCAEF4A
:100CB000D0E014C08E0120E030E060E472E48FE008
:100CC00090E0A90198010E94A71A69017A0181E0C8
:100CD000C81AD108E108F10810926403E091800776
:100CE000F09181070995811103C081E0809364032D
:100CF000809163038823B9F180916403811133C02B
:100D000003C010926303C5CF46992DC0479A0E9435
:100D1000F605009771F09C01DE010E94321BDC0198
:100D2000CB0129E0B595A795979587952A95D1F799
:100D300003C08FEF9FEFDC01109290002AE0209318
:100D40009100D0929900C09298008093650390938F
:100D50006603A0936703B09368038091710082607B
:100D60008093710002C04798D2CFDF91CF911F913D
:100D70000F91FF90EF90DF90CF90089580918602C1
:100D80000895089527E0FC012E9FC0012F9F900D2C
:100D90001124680F791FFB01E75FFC4F90819417C6
:100DA00049F088EF890F823028F081E09A3019F0FD
:100DB00080E0089581E008950E94ED1DEF92FF927A
:100DC0000F931F93CF93DF93EC01198218821B823C
:100DD0001A821D821C8261157105A9F17B01FB013C
:100DE00001900020E9F731978F01061B170BB8011E
:100DF0006F5F7F4F80E090E00E94231D009759F0C5
:100E0000998388831B830A832C813D81232B81F462
:100E1000FC0110820DC088819981009711F00E9419
:100E20008B1C198218821D821C821B821A820BC0A5
:100E30001D830C83B701DF91CF911F910F91FF901C
:100E4000EF900C94FB1DDF91CF911F910F91FF90BC
:100E5000EF9008953FB7F89480916A0390916B03E7
:100E6000A0916C03B0916D0326B5A89B05C02F3FE0
:100E700019F00196A11DB11D3FBFBA2FA92F982FC0
:100E80008827820F911DA11DB11DBC01CD0142E03B
:100E9000660F771F881F991F4A95D1F708958F9283
:100EA0009F92AF92BF92CF92DF92EF92FF926B012F
:100EB0007C010E942A074B015C01C114D104E104AA
:100EC000F104F1F00E942A07DC01CB01881999098D
:100ED000AA09BB09883E9340A105B10570F321E042
:100EE000C21AD108E108F10888EE880E83E0981E46
:100EF000A11CB11CC114D104E104F10419F7DDCF28
:100F0000FF90EF90DF90CF90BF90AF909F908F9029
:100F100008951F920F920FB60F9211242F933F93B3
:100F20008F939F93AF93BF93809187029091880294
:100F3000A0918902B0918A023091690323E0230FC6
:100F40002D3720F40196A11DB11D05C026E8230F01
:100F50000296A11DB11D209369038093870290938F
:100F60008802A0938902B0938A0280916A039091CB
:100F70006B03A0916C03B0916D030196A11DB11D8F
:100F800080936A0390936B03A0936C03B0936D03FB
:100F9000BF91AF919F918F913F912F910F900FBE75
:100FA0000F901F9018951F920F920FB60F92112459
:100FB0002F933F934F935F936F937F938F939F9361
:100FC000AF93BF93EF93FF93809165039091660376
:100FD000A0916703B0916803892B8A2B8B2B81F139
:100FE0008091640381110BC098B180E4892788B98E
:100FF00080916303882319F088B1805888B9809163
:10100000650390916603A0916703B0916803181679
:1010100019061A061B06B4F48091650390916603C5
:10102000A0916703B09168030197A109B10980936A
:10103000650390936603A0936703B093680302C0AF
:101040000E941006FF91EF91BF91AF919F918F91F8
:101050007F916F915F914F913F912F910F900FBEB4
:101060000F901F9018952D9A0895BC0180E090E094
:101070000C944F078FB12CB193B130E0209530958F
:1010800020743327A90123E0559547952A95E1F768
:10109000292F30E0209530952071332735952795FD
:1010A00035952795242B8095807F822B089583B7D3
:1010B000817F83BF83B7816083BF889583B78E7F2D
:1010C00083BF08958EBD00000DB407FEFDCF0895C7
:1010D000E1ECFAE090E1969FD001A0781124A80FEE
:1010E0006770E60FF11D8491AE58BC4F442321F088
:1010F000EC91E82BEC930895E82FE0958C918E23EA
:101100008C9308952F923F924F925F926F927F92AD
:101110008F929F92AF92BF92CF92DF92EF92FF9207
:101120000F931F93CF93DF93CDB7DEB727970FB6FB
:10113000F894DEBF0FBECDBFFC016A3069F4248D88
:10114000808D918D38E0239F800D911D1124918F0A
:10115000808F178A168AA6C06D3009F4A3C09F83BA
:101160008E83348C238D2983328D3A83608C718CED
:10117000E688F78880E8E816F104C4F0AE81BF8104
:101180005C962C915C97422F50E056968D919C91E5
:101190005797B6E02B9F800D911D1124EE81FF81A2
:1011A000978B868B258D211167C07CC0F0E46F166C
:1011B000710424F7C70125E0329E800D911D112492
:1011C00018161906DCF6432C512CC30138E0339E67
:1011D000800D911D11241816190684F685E0689F6C
:1011E000800111240F531A4F20E0F801249025307C
:1011F00009F4212C430158E020FC02C0398101C0D0
:101200003A8131110BC0F9818A81F81307C0269405
:101210005150840C951C5111EFCF25C067018C2DC6
:101220008E198315A0F754018A2D88198315B8F4F7
:1012300090E8C916D10478F4A0E4AA16B10458F4D1
:10124000432FB501C6012C833B835D830E94680850
:101250005D813B812C81BFEFAB1ABB0AE5CFEFEF7D
:10126000CE1ADE0ADCCF2F5FE40CF51C0F5F1F4F98
:10127000263009F0BACF82CF6AEF64039001659FF0
:10128000300D112420583F4F281739075CF4AE81E8
:10129000BF81ED91FC9111970190F081E02D6AE002
:1012A000CD01099581E090E027960FB6F894DEBF56
:1012B0000FBECDBFDF91CF911F910F91FF90EF90A7
:1012C000DF90CF90BF90AF909F908F907F906F9066
:1012D0005F904F903F902F900895AF92BF92CF9222
:1012E000DF92EF92FF920F931F93CF93DF9300D083
:1012F00000D0CDB7DEB7E12CF12C00E010E08091FA
:10130000020190910301863091054CF403969C01F3
:10131000092E000C440B550B892B91F004C028E0DA
:1013200030E040E050E029833A834B835C830E94A5
:101330001D1A29813A814B815C810E94A71A03C042
:1013400060E070E0CB010E942D1A0E94701B5801D2
:10135000AE0CBF1C9501275F3C4F69010E94411BE9
:10136000F6016083F501E557FD4F1082F501E65364
:10137000FD4F10820F5F1F4F0730110509F0BFCFDF
:10138000F7E0EF0EF11C2FE3E216F10409F0B5CF00
:101390000F900F900F900F90DF91CF911F910F91B1
:1013A000FF90EF90DF90CF90BF90AF9008952F9275
:1013B0003F924F925F926F927F928F929F92AF92E5
:1013C000BF92CF92DF92EF92FF920F931F93CF9332
:1013D000DF93CDB7DEB727970FB6F894DEBF0FBE09
:1013E000CDBF79E0472E73E0572EEBE88E2EE2E07A
:1013F0009E2E640100E010E01F821E8298012F5F84
:101400003F4F3B832A83225031093D832C83EE8159
:10141000FF81E40DF51D20812983EE81FF81EC0D14
:10142000FD1D8081882351F02E813F812F5F3F4F2A
:101430003F832E832730310551F718C0EA80FB80A7
:10144000370161E0661A710889E0E816F1040CF0D2
:101450009EC049816E817F81C7010E94C206882398
:1014600009F495C03FEFE31AF30AEACF0F5F1F4F6D
:1014700087E0480E511C97E0C90ED11C09301105B8
:1014800009F0BACF49E080E090E020E030E0F401DC
:10149000E20FF31F5081511101962F5F3F4F27300C
:1014A0003105A9F7415037E0830E911C4111EDCF72
:1014B00090934B0380934A032091C2073091C30756
:1014C000309349032093480340910001509101015A
:1014D000489FD001499FB00D589FB00D11249C0129
:1014E0008630910514F025E030E0220F331FF9011A
:1014F000E15EFE4F60817181A69F9001A79F300D34
:10150000B69F300D112460914C0370914D03260F4E
:10151000371F30934D0320934C0320910801211174
:10152000B1C0181619060CF0ADC08091020190915F
:101530000301481B590B28EC249FC001259F900DE7
:10154000112480579E4F209171002D7F20937100B0
:101550001092620322E737E0309361032093600327
:1015600030935E0320935D0390937307809372071B
:1015700084E690E0909375078093740780E090E88C
:1015800090937707809376070E9410067BC0EC80CB
:10159000FD805701AFEFAA1ABA0ABFEFEB16FB06A0
:1015A00061F049816E817F81C7010E94C206882354
:1015B00021F091E0E91AF108ECCFC50193012A1955
:1015C0003B0922303105C4F4EE80FF808FEFE81A2A
:1015D000F80A1701A1E02A1A3108B7E0EB16F10466
:1015E00029F14981B701C8010E94C2068823F1F0A0
:1015F0009FEFE91AF90AEDCF67E06A9DA0016B9DA4
:10160000500D11242E813F81420F531F20E030E006
:1016100068167906CCF2F901E40FF51FE557FD4F86
:1016200061E060830196295F3F4FF2CFEE80FF803B
:1016300031E0E31AF1083701FFEF6F1A7F0A530117
:101640002FEFE216F20659F04981B701C8010E9456
:10165000C206882321F0E1E0EE1AF108ECCFC101C7
:101660008619970902970CF4DFCE2A143B040CF478
:10167000DBCEF601EA0DFB1D31E030836FEFA61AD9
:10168000B60AF3CF80E027960FB6F894DEBF0FBE00
:10169000CDBFDF91CF911F910F91FF90EF90DF9021
:1016A000CF90BF90AF909F908F907F906F905F9002
:1016B0004F903F902F9008959C01240F311D1216DA
:1016C000130674F5803891055CF5FC0197FF02C0A4
:1016D000E0E0F0E02138310514F020E830E02E1B86
:1016E000AB014770552781E001C0880F4A95EAF7A2
:1016F00077FF02C0695F7F4F93E0759567959A9574
:10170000E1F77695762F662777956795E60FF71FB1
:10171000EE58FC4F215020F09081982B9193FACFF6
:101720000895009769F0FC0101900020E9F73197D6
:10173000AF01481B590BBC018BEB97E00C94CB0518
:1017400080E090E008957F928F929F92AF92BF9237
:10175000CF92DF92EF92FF920F931F93CF93DF937D
:101760006C015B017A0180911001882309F46BC040
:1017700080917103882309F466C080916F0380FF14
:1017800005C08091E00082608093E000E70110E0F6
:101790000AEF83E0982E90E4792E2AE3822E209798
:1017A00009F448C08FB7F8949092E9009091E8004E
:1017B00095FF06C09091F200272D291B922F01C0A2
:1017C00090E08FBF91110AC0015009F43CC061E064
:1017D00070E080E090E00E944F07E1CF292F30E0D9
:1017E000C217D3070CF49C2F8FB7F8949092E9009E
:1017F0002091E80025FF1CC0292F30E0C21BD30B2D
:10180000F501915020F041914093F100FACFA20EE2
:10181000B31E112319F08092E80009C09091E800EE
:1018200095FD06C08092E80011E0209709F010E0D5
:101830008FBFB5CF1111B6CF5D9884E680936E034C
:101840001E141F0444F081E090E0F601938382832C
:1018500080E090E001C0C701DF91CF911F910F910F
:10186000FF90EF90DF90CF90BF90AF909F908F90C0
:101870007F90089520E082E793E0B22FB111BFEF8F
:10188000FC010024B193B193B193B1930394D1F7C8
:1018900008952F923F924F925F926F927F928F9214
:1018A0009F92AF92BF92CF92DF92EF92FF920F93EF
:1018B0001F93CF93DF93CDB7DEB728970FB6F89479
:1018C000DEBF0FBECDBF5A01822E912C9C01280D88
:1018D000391D37FDC4C0803891050CF0C0C09B0194
:1018E000200F311D37FDBBC0603471050CF0B7C04F
:1018F000AB0177FF04C044275527461B570B4770A1
:1019000055279B0177FF02C0295F3F4FE3E03595E4
:101910002795EA95E1F777FF08C02150310968E083
:1019200070E0DB01A41BB50BAD01602F66956695D9
:10193000669570E0077011F06F5F7F4FDB01A20FBB
:10194000B31FBA83A98339017694762C66247794E1
:101950006794680E791EE12CF12C00E010E0230161
:10196000B0E84B0E511C68E070E0DB01A41BB50B26
:10197000BC83AB8369817A812617370709F46FC06E
:101980002830310509F46BC02F3FBFEF3B070CF443
:101990005BC0B201600F711FDB01AE58BC4FBE834C
:1019A000AD83D801A60DB71DAE58BC4F6C0160E0E9
:1019B00070E0681579050CF047C0E0E8CE16D10458
:1019C00009F442C0D7FC34C02F3FFFEF3F0709F4B2
:1019D00042C0FB01EE0DFF1DEA0DFB1DE491042E3C
:1019E00001C0EE0F0A94EAF73C90E329EC9341150D
:1019F0005105F1F027303105D9F0FB01EE0DFF1D47
:101A0000EA0DFB1DE4912E2E312CF1010B8002C05A
:101A1000F595E7950A94E2F7F887EF83ED81FE816B
:101A20003080EF81F885E3291F01ED81FE8120825E
:101A30006F5F7F4FED81FE813196FE83ED83FFEF77
:101A4000CF1ADF0A1196B5CF2F5F3F4F00581F4FB7
:101A5000E80CF91C8FCF4115510579F6E9CF28968E
:101A60000FB6F894DEBF0FBECDBFDF91CF911F91AF
:101A70000F91FF90EF90DF90CF90BF90AF909F902D
:101A80008F907F906F905F904F903F902F90089530
:101A90002091C507282329F49091C407982381E059
:101AA00009F480E008950C94910BCF92DF92EF92AD
:101AB000FF920F931F93CF93DF931F92CDB7DEB7A3
:101AC0007C018B01040F111D6B0177FF14C0C12C29
:101AD000D12C11C0C616D706ACF480E8E816F10484
:101AE00038F4422FB601C70129830E946808298172
:101AF0008FEFC81AD80AB801013411055CF360E40D
:101B000070E0E8CF0F90DF91CF911F910F91FF9080
:101B1000EF90DF90CF9008958F929F92AF92BF92F7
:101B20000F931F93CF93DF93CDB7DEB7A1970FB677
:101B3000F894DEBF0FBECDBF19A2423008F44AE0D0
:101B40008E010F5D1F4F842E912CA12CB12CA5016D
:101B500094010E94101BE62FB901CA01015011091E
:101B6000EA3014F4E05D01C0E95CD801EC93232B6A
:101B7000242B252B61F7C8010E94910BA1960FB66B
:101B8000F894DEBF0FBECDBFDF91CF911F910F91B3
:101B9000BF90AF909F908F900895CF92DF92EF9279
:101BA000FF92CF93DF936C01990FEE08FF08F7FEC9
:101BB0001FC0E091BB07F091BC070190F081E02DC0
:101BC0006DE28BEB97E00995EC0166277727CB0157
:101BD0006C197D098E099F094AE00E948C0D8C0FBB
:101BE0009D1FDF91CF91FF90EF90DF90CF900895F0
:101BF0004AE0C701B601DF91CF91FF90EF90DF90EF
:101C0000CF900C948C0DEF92FF920F931F93CF9374
:101C1000DF93EC018B01E42EF22E6034710510F499
:101C20000E945C0BB8016F0D711D61507109603429
:101C3000710520F44E2DCE010E945C0B21E04F2D4A
:101C4000B801CE010E94550DCE018E0D911D21E0EF
:101C50004F2DB8010197DF91CF911F910F91FF9008
:101C6000EF900C94550DCF92DF92EF92FF920F936D
:101C70001F93CF9302EF16E0C7EB5C988C2F0E9466
:101C8000620880E00E94620880E10E9462085C9A1B
:101C9000680180E8C80ED11C7801F70181917F01AD
:101CA0000E946208EC14FD04C1F7C15000581109EC
:101CB000CF3A19F7CF911F910F91FF90EF90DF90DE
:101CC000CF900895FC0180917103811103C08FEFC3
:101CD0009FEF08959FB7F89482E08093E9002091E8
:101CE000F20030E01216130614F421E030E0211562
:101CF000310559F0289884E6809370038091F100B3
:101D000080838091F200882319F09FBFC901089554
:101D10008BE68093E800F9CF8091DD0781110DC03B
:101D200082E08093D90784E08093DA071092DC0781
:101D30001092DB0781E08093DD0789ED97E008953D
:101D4000CF93DF931F92CDB7DEB76983DC01ED91AE
:101D5000FC910280F381E02D41E050E0BE016F5F15
:101D60007F4F09950F90DF91CF91089583E0809385
:101D7000E9008091F200882319F08AE38093E8005B
:101D80000895FC018485958597FD0BC09FB7F89455
:101D900082E08093E9008091F2009FBF90E001967D
:101DA00008959FB7F89482E08093E9008091F20053
:101DB0009FBF90E008954091390850913A082091D2
:101DC00037083091380842175307B4F49091E8006F
:101DD0009570E1F39091E80092FD19C08093F100B5
:101DE0008091390890913A0801968F739927892B31
:101DF00019F48EEF8093E8008091390890913A08A9
:101E0000019690933A088093390881E0089580E024
:101E10000895DF92EF92FF920F931F93CF93DF937A
:101E2000D82E8A017B01E40EF51EEB01CE15DF05ED
:101E300071F0D7FE03C0FE01849101C088810E9429
:101E4000DB0E21968111F2CF8FEF9FEF01C0C80109
:101E5000DF91CF911F910F91FF90EF90DF90089548
:101E6000615030F02091F100FC0120830196F8CF01
:101E7000289884E6809370030895CF93DF931F9290
:101E8000CDB7DEB7FC018485958597FD05C02FEFA2
:101E90003FEF358724870BC0CE0101960E94620E6A
:101EA000019719F4898190E002C08FEF9FEF0F90A6
:101EB000DF91CF9108950F931F93CF93DF931F92DC
:101EC000CDB7DEB78C01FC018485958597FF0EC0E8
:101ED000CE0101960E94620E019719F4298130E02B
:101EE00002C02FEF3FEFF80135872487F801848582
:101EF00095850F90DF91CF911F910F9108950F93CA
:101F00001F93CF93DF931F92CDB7DEB782E0898313
:101F100042E450E069EC7AE080E80E94090F0E94F8
:101F20008C0EDC0112960D911C9113970115110571
:101F300069F0D801ED91FC910280F381E02DBE01A2
:101F40006F5F7F4FC801099597FF07C089810F9088
:101F5000DF91CF911F910F910895F80100851185B0
:101F6000E5CF1F920F920FB60F9211248F939F937C
:101F70008091E1009091E100937F9093E10083FFD5
:101F80000FC01092E90091E09093EB001092EC00EA
:101F900092E39093ED001092710398E09093F0001B
:101FA00082FF20C093E09093E9009091F200992382
:101FB00019F09AE39093E80090916E03992339F019
:101FC00090916E03915090936E03992389F19091B3
:101FD0007003992339F0909170039150909370039E
:101FE000992341F184FF10C08091E2008E7E8160D0
:101FF0008093E2008091E1008F7E8093E1008091E8
:102000006F038E7E806111C080FF16C08091E20058
:102010008E7E80618093E2008091E1008E7E8093CD
:10202000E10080916F038E7E816080936F0304C016
:102030005D9ACDCF289AD6CF9F918F910F900FBEEA
:102040000F901F9018951F920F920FB60F921124A8
:10205000CF92DF92EF92FF920F931F932F933F93B4
:102060004F935F936F937F938F939F93AF93BF93A0
:10207000EF93FF93CF93DF93CDB7DEB76C97DEBFBF
:10208000CDBF1092E9008091E80083FFEDC168E0C8
:10209000CE0145960E94300F82EF8093E8008D8933
:1020A00087FF05C09091E80090FFFCCF03C09EEF32
:1020B0009093E800982F907609F0C6C09E892F89EA
:1020C000188D91110CC0803829F4809136088093C6
:1020D000F10002C01092F1001092F10048C1422FAD
:1020E00050E0512B913051F4811141C141305105E3
:1020F00009F03DC1809136088D7F0BC0933061F4AB
:10210000811135C14130510509F031C18091360846
:102110008260809336082BC1953041F48091E800AD
:1021200080FFFCCF20682093E30021C1963009F0A6
:102130005FC0EB8CFC8C1092E90010923A08109270
:102140003908123091F510923808109237080E9421
:102150007F0F99E0BE016F5F7F4FDB01E92F1D927A
:10216000EA95E9F799831A8391E09E8390EA98872C
:102170009AEF99872091390830913A08275F3F4FAD
:102180003C832B838D831092E90010923A081092C1
:102190003908F0923808E092370849E050E080E0D2
:1021A0000E94090F0E947F0FE2C0F0923808E0926F
:1021B00037080E948C0EDC011296ED90FC9013976C
:1021C000E114F10409F4C0C0D701ED91FC91048041
:1021D000F581E02DBE016B5E7F4FC7010995009729
:1021E00019F00CF0C4C0C7C0F701E084F184E8CF57
:1021F000973009F4C0C0983021F481E08093F10059
:10220000B6C0993009F0B3C0837009F0B4C0ECE4F3
:10221000F1E081E021E036E39081992361F0809341
:10222000E9002093EB0091919093EC003093ED0046
:102230008F5F873089F78EE78093EA001092EA007B
:102240008F898093710393C08B8D9C8D1092E900D0
:1022500010923A0810923908909338088093370802
:10226000898D811156C08E899D89913A59F48132A8
:1022700009F081C047E050E069E071E080E00E9431
:10228000090F75C0913209F076C0833289F4888DC8
:1022900090E0982F88272F89822BA0E0B0E08093D0
:1022A000110190931201A0931301B09314015FC028
:1022B000803269F48091E80082FFFCCF67E089E01A
:1022C00091E00E94300F8BEF8093E80006C08232CD
:1022D00009F04DC08F8980931001809135088823C3
:1022E00019F0EEEFFAE002C0E0E0F8E080910901B9
:1022F00090910A01A0910B01B0910C01803B944098
:10230000A105B10509F07BC08091100180FF93C049
:1023100076C00E948C0EDC0112960D911C911397D1
:102320000115110541F1D801ED91FC910190F08169
:10233000E02DBE016B5E7F4FC8010995811117C06A
:10234000F80100851185ECCF113009F44EC013302F
:1023500091F48F89882309F445C0823081F440E8E4
:1023600060E18DE29BE00E949219882321F08EEFBC
:102370008093E80079C081E28093EB0075C08130E2
:1023800029F440E86BE081E29BE0EDCF833099F7E0
:102390000E948C0EDC011296ED90FC9013978E013A
:1023A0000F5F1F4F6801E114F10479F0D701ED913F
:1023B000FC910680F781E02DB801C7010995080F4F
:1023C000111DF701E084F184EECFD8011C92F601D3
:1023D00001900020E9F73197BF016C197D0940E0B9
:1023E000C601C1CF6BE07BE002C06FE07BE061150E
:1023F000710509F2FB01449150E080E840CF0FB62F
:10240000F894A89580916000886180936000109294
:1024100060000FBEA895EE3F2AE0F20739F08091E8
:10242000FE0A9091FF0A91838083A1CF1092FF0A48
:102430001092FE0A9CCFEE3F8AE0F80731F08081CF
:1024400091819093FF0A8093FE0A87E797E7918333
:1024500080839BE088E10FB6F894A8958093600094
:102460000FBE9093600083CF6C960FB6F894DEBFDA
:102470000FBECDBFDF91CF91FF91EF91BF91AF9193
:102480009F918F917F916F915F914F913F912F918C
:102490001F910F91FF90EF90DF90CF900F900FBEA4
:1024A0000F901F901895CF93DF9300D000D000D0ED
:1024B000CDB7DEB7789484B5826084BD84B5816081
:1024C00084BD85B5826085BD85B5816085BD8091FF
:1024D0006E00816080936E00109281008091810077
:1024E000826080938100809181008160809381006F
:1024F0008091800081608093800080919100826053
:1025000080939100809191008160809391008091EF
:1025100090008160809390008091C10084608093DE
:10252000C1008091C10082608093C1008091C10090
:1025300081608093C1008091C30081608093C3005B
:102540008091C00082608093C0008091C200816051
:102550008093C20080917A00846080937A00809199
:102560007A00826080937A0080917A008160809303
:102570007A0080917A00806880937A0010927103CB
:102580001092360810926F038091D700816080937B
:10259000D70080EA8093D80089B5806189BD89B56C
:1025A000826089BD09B400FEFDCF61E070E080E08B
:1025B00090E00E944F078091D8008F7C80618093CB
:1025C000D8008091E000807F8093E0008091E1005E
:1025D0008E7E8093E1008DE08093E200559A209AF0
:1025E000EEEFFFE7859194918B3F9C4D19F481E0CC
:1025F0008093350881EC80937C0085B1806F85B92C
:10260000249884B1866E84B95E9A5F988AB1806D91
:102610008AB9769A6E9881B3806F81BB899880B3AE
:102620008D7080BB80E58CBD81E08DBD85E090E044
:102630000E9435085F9A85E090E00E9435085E9818
:102640005C98ACE5EA2EA1E0FA2E1DE01E0DF70124
:1026500084910E946208FFEFEF1AFF0A1E11F7CF64
:102660005C9A81E88093640081E08093650000E0DB
:1026700014E080E00E94620801501109D1F70E9425
:102680003A0887FF1FC05C9885EA0E9462085C9A3E
:102690002E982F982D98809164008062809364001A
:1026A0000E945708FDCF2D980E943A0884788438FC
:1026B00071F00E943A088471843131F188EC90E025
:1026C0000E9435080E943A0882FDEDCF3AC00E9470
:1026D000330888EC90E00E9435082F9882E090E063
:1026E0000E94911A8F3F29F06FEF82E090E00E94E4
:1026F000991A84EF91E00E9435082F9A0E943A08B7
:1027000084788438D9F3D5CF0E94330888EC90E0E0
:102710000E9435082E9882E090E00E94911A88234A
:1027200029F060E082E090E00E94991A84EF91E045
:102730000E9435082E9A0E943A0884718431D9F398
:10274000BDCF0E94330882E090E00E94911A882356
:1027500031F03E9A3F9A81E08093860204C0109245
:1027600086023E983F982E98FEEEEF2EFF24FA94B4
:102770000E943A0886FF04C02E9A2F9A2D9A3FC0D5
:102780002CEFE2162FEFF20619F42E9A2F9806C0BE
:1027900078E1E716F10411F42F9A2D980E943A0C73
:1027A00000E128E54CEA50E0B70184E190E00E94A6
:1027B000490C0E94330E8BE190E00E94350880EFB7
:1027C000E8168FEFF80621F48AEF90E00E943508B2
:1027D0009FEFE91AF90AE9E1EE16F10449F68CEBEC
:1027E00092E00E9435080E943308E091BF07F09103
:1027F000C0070190F081E02D8FEB97E0099582E30F
:1028000090E00E9435080E943A088111F8CF81E2D9
:102810008093C607809164008E7F809364008091CE
:102820007A00806480937A0080917A0086FDFCCFE4
:1028300000917800109179000E942A0720E030E092
:10284000980111270027600F711F821F931F6115C8
:1028500071058105910511F00E94221A8091640092
:102860008160809364001092D80784E080935503C0
:1028700083E0809353030E946D090E94D70957E0BB
:10288000352E2FB7F8948091870290918802A091FD
:102890008902B0918A022FBF4091CB075091CC079B
:1028A0006091CD077091CE072091CF07222341F090
:1028B0002091C707821B8093D0071092CF07BFC318
:1028C00084179507A607B70738F4481B423008F469
:1028D000B6C30E945708B3C321E02093CF0780936B
:1028E000C7079093C807A093C907B093CA07209160
:1028F000C607820F911DA11DB11D8093CB07909338
:10290000CC07A093CD07B093CE078091C2079091DA
:10291000C30701969093C3078093C2078091C407B1
:102920008093C5070E943A088093C4070E943A0C1E
:102930001092D4071092D3071092D2071092D107A9
:1029400080910801882309F446C000E420E841ECA6
:1029500051E060E070E080E090E00E94490C84E08B
:102960000E94480D811173C388E00E94480D8111B7
:102970006EC380910601909107019093D2078093D6
:10298000D10788E390E09093D4078093D3074091D8
:10299000B8075091B9076091B4077091B5078BEBF8
:1029A00097E00E94CB058091060190910701019765
:1029B00090930701809306012091B2073091B307ED
:1029C000821793070CF039C380E890E090930701D9
:1029D0008093060132C380915A038823D9F082E3A1
:1029E00090E09093D2078093D1078CE190E0909390
:1029F000D4078093D30782E591E00E94530D84E0D1
:102A00000E94480D882309F418C30E943A0883FDE8
:102A100014C320C3209104013091050137FF02C087
:102A200020E030E000E010E07901FF240E151F05E2
:102A300054F421E042E06EE370E0C8010E94550DBD
:102A40000F5F1F4FF3CF06E510E01093D2070093FE
:102A5000D10784E090E09093D4078093D30788E572
:102A600091E00E94530D80910201909103010E9418
:102A7000CD0D1093D2070093D1078CE090E0909396
:102A8000D4078093D3078DE591E00E94530D1093F6
:102A9000D2070093D10784E190E09093D40780930C
:102AA000D307609158037091590380E090E04AE0A9
:102AB0000E948C0D80914C0390914D0318161906BD
:102AC0000CF056C01093D2070093D1078CE190E030
:102AD0009093D4078093D30783E691E00E94530D2F
:102AE00080910001909101010E94CD0D1093D207B9
:102AF0000093D10784E290E09093D4078093D307AA
:102B000085E691E00E94530D80914C0390914D0316
:102B10000E94CD0D1093D2070093D10784E390E07B
:102B20009093D4078093D307809100019091010185
:102B30002091020130910301821B930B8830910593
:102B400014F087E090E097FF02C080E090E026E07C
:102B5000289FF001299FF00D1124EE57F84F448172
:102B60005581608171818BEB97E00E94CB0532C06B
:102B70008091580390915903209156033091570347
:102B80002817390720F4909357038093560306E5DE
:102B900010E01093D2070093D1078CE290E090935D
:102BA000D4078093D30787E691E00E94530D1093DA
:102BB000D2070093D10784E390E09093D4078093E9
:102BC000D307609156037091570380E090E04AE08C
:102BD0000E948C0D109155031093540300915303E0
:102BE0000093520380E80E94480D882341F000239F
:102BF00019F08FEF800F01C080E08093530380E1D4
:102C00000E94480D882361F080915303282F30E003
:102C10002630310514F48F5F01C086E080935303A2
:102C200080E20E94480D882341F0112319F08FEFB4
:102C3000810F01C080E08093550380E40E94480D1D
:102C4000882361F080915503282F30E0283031052A
:102C500014F48F5F01C088E08093550384E00E94E4
:102C6000480D882321F00E943A0883FFF6C1809125
:102C70004A0390914B03181619060CF0DBC080E84C
:102C800090E090930501809304018091C207909198
:102C9000C3072091480330914903821B930B40974F
:102CA00008F400C1609151032BE832E009E013E021
:102CB000A801EBE086E090E0D901A80FB91F7C9154
:102CC000772329F0DA01A80FB91FEC93672F01973A
:102CD00098F7295F3F4F495F5F4F72E02A3C370703
:102CE00049F7609351034AECE42E42E0F42EC12CE4
:102CF000D12C36E0632E712C3C9C40013D9C900C05
:102D000011245801A60CB71CC301F50120812B30FA
:102D100009F047C0009779F0F801E80FF91FDF01CB
:102D200011972C912083F701E80FF91F2081285F6C
:102D300020830197EFCF0E941D1A8091020190918C
:102D40000301863091054CF403969C01092E000C7A
:102D5000440B550B892B91F004C028E030E040E093
:102D600050E029833A834B835C830E941D1A29819A
:102D70003A814B815C810E94A71A03C060E070E039
:102D8000CB010E942D1A0E94701B0E94411BF8016A
:102D90006083F7018181883008F488E0F70180833F
:102DA000B3CFF401E60DF71DE557FD4F1082F1E0BA
:102DB0006F1A710808F0A5CF7FEFC71AD70A095F0D
:102DC0001F4F87E0E80EF11C99E0C916D10409F005
:102DD00090CF80915103811165C080910001909145
:102DE0000101019690930101809300010E94D7098F
:102DF00080914A0390914B03892B09F053C0209195
:102E000058033091590380914C0390914D03820FE8
:102E1000931F9093590380935803809102019091DE
:102E20000301909301018093000110924D031092D1
:102E30004C0338C08091500381112AC08091C20791
:102E40009091C30766E070E00E94C81B892B49F48B
:102E50008091040190910501019790930501809361
:102E600004018091040190910501181619061CF0C7
:102E700081E0809350030E943A0883FF13C0A09121
:102E8000550380915303A113ECC08013EAC00AC01C
:102E900084E00E94480D811140C188E00E94480DE5
:102EA00081113BC1109251039AECC92E92E0D92EA8
:102EB000812C912C24E0A22EB12C222423941E825A
:102EC0001D8284E0E82EF12C8D819E81880D991D54
:102ED000FC01E75FFC4F4081E8E04E9FA001112418
:102EE00047595E4F4B305105B1F1209151032111EB
:102EF00008C0ED81FE81EC0DFD1D20812111209285
:102F00005103FC01E557FD4F8081882359F08091E2
:102F1000C20780FF20C008E028E0B701C5010E9479
:102F2000490C19C04D805E804C0C5D1CF201108173
:102F3000612E712CB7016619770908E028E0C501F8
:102F40000E94490CF2E06F16710414F0115001C098
:102F500010E0F20110838D819E8101969E838D8306
:102F600098E0E90EF11CED81FE81379709F0ACCFB6
:102F7000F8E0AF0EB11C27E0C20ED11C77E0870E3F
:102F8000911C8FE38816910409F099CF809150032A
:102F900081111FC08091C2079091C3076AE070E061
:102FA0000E94C81B892B09F448C06091530380918B
:102FB000550398E0699FB00111246D5F7F4FE8E0F1
:102FC0008E9FC001112429E049E003960E94030E60
:102FD00034C000E110E020E040E260E170E0C801B0
:102FE0000E94550D0F5F1F4F00341105A1F720E21D
:102FF00040E360E170E080E190E00E94030E0CE1AC
:1030000010E01093D2070093D10786E190E09093EF
:10301000D4078093D3078BE691E00E94530D109361
:10302000D2070093D10782E290E09093D407809377
:10303000D30780E791E00E94530D0E94330E80E099
:1030400090E0892B09F41DCC0E9400001ACC10924C
:1030500008018FCC10925A03F0CF81E080935A037D
:1030600006CE3A9ED0011124A80FB11DA75FBC4F18
:103070008C91319EF0011124E00FF11DE75FFC4FB0
:1030800090819C93808380915103811102C00E94A2
:10309000D70980914A0390914B03892BF9F4E09171
:1030A0005503809153033E9EF0011124E80FF11D5A
:1030B000E75FFC4F20819091540380915203399E29
:1030C000D0011124A80FB11DA75FBC4F3C913083E4
:1030D0002C939093550380935303E4CE80914E0339
:1030E00090914F03019690934F0380934E0365E0B8
:1030F00070E00E94DC1B892B49F4809102019091C1
:1031000003010196909303018093020180E890E00F
:103110009093050180930401C5CE81E0809308015E
:103120001092500310925A031092590310925803B0
:1031300010924F0310924E0381E090E090930301B0
:1031400080930201909301018093000180E890E058
:1031500090930501809304010E946D090E94D70994
:10316000A1CE0F931F93CF93DF938C0181E090E06A
:103170000E94911A80FF31C08AE090E00E94911A6B
:103180009FEF980F9E3F48F522E330E0D801579615
:103190003C932E93569728E330E059963C932E9318
:1031A0005897CBE0D0E0D801ED91FC910190F081EF
:1031B000E02D682FC8010995CE010E94911A219631
:1031C000C131D10581F70E94330E88EE93E0DF9183
:1031D000CF911F910F910C943508DF91CF911F91E2
:1031E0000F91089504970C94B118CF93DF93C2EB1D
:1031F000D7E02697888199810E948B1C87E0C2388E
:10320000D807B9F78091B4079091B507DF91CF91B6
:103210000C948B1CE5EEF7E01382128288EE93E0AB
:10322000A0E0B0E084839583A683B7838FE291E02A
:10323000918380838FEF9FEF95878487EBEBF7E097
:10324000138212821186128620E12387908787835A
:10325000108A118A128A138A148A8FE391E091836B
:10326000808389E491E095838483178A168A118E7E
:10327000108E81E0828F138E848F158E8EEB96E0F8
:10328000909381078093800780E090E890937F0778
:1032900080937E0746983E9A47983F9A65E771E08B
:1032A00084EB97E00E94DE062091B8073091B907C1
:1032B0004AEF4203C001439F900D11249093B3073E
:1032C0008093B20763E572E082E897E00E94DE0631
:1032D00068E572E088E897E00E94DE066EE572E03D
:1032E0008EE897E00E94DE0664E672E084E997E0EB
:1032F0000E94DE0668E672E08AE997E00E94DE0638
:103300006EE672E080EA97E00E94DE0666E772E011
:1033100086EA97E00E94DE066DE772E08CEA97E0AD
:103320000C94DE06CF92DF92EF92FF920F931F93E1
:10333000CF93DF931F92CDB7DEB7182F062FE42E61
:10334000862F880F8E5F99830E94DB0E83E00E9498
:10335000DB0EF12EC12E9981D92E8C2D8F1980175D
:1033600098F4F601E7FE02C0849101C080810E94BA
:10337000DB0E182F80E00E94DB0E8123FFEFCF1AB7
:10338000DF0A8111EACF01C081E00F90DF91CF9178
:103390001F910F91FF90EF90DF90CF9008958F9243
:1033A0009F92AF92BF92CF92DF92EF92FF92CF9314
:1033B000DF93EC01688179818A819B8161157105B8
:1033C0008105910521F464E279ED8BE597E02DE12B
:1033D00033EF41E050E00E94A71A49015A019B01D6
:1033E000AC01A7EAB1E40E94C61A6B017C01ACEE05
:1033F000B4EFA50194010E94D41ADC01CB018C0D1D
:103400009D1DAE1DBF1DB7FF03C00197A109B048A8
:1034100088839983AA83BB83BC01CD019F77DF9109
:10342000CF91FF90EF90DF90CF90BF90AF909F90A3
:103430008F9008950E94CF19089585E191E00E9430
:10344000CF190895609315017093160180931701A9
:10345000909318010895E89409C097FB3EF4909565
:103460008095709561957F4F8F4F9F4F9923A9F05D
:10347000F92F96E9BB279395F695879577956795EC
:10348000B795F111F8CFFAF4BB0F11F460FF1BC030
:103490006F5F7F4F8F4F9F4F16C0882311F096E9C3
:1034A00011C0772321F09EE8872F762F05C0662371
:1034B00071F096E8862F70E060E02AF09A95660F2A
:1034C000771F881FDAF7880F9695879597F90895E3
:1034D00057FD9058440F551F59F05F3F71F04795C5
:1034E000880F97FB991F61F09F3F79F087950895AA
:1034F000121613061406551FF2CF4695F1DF08C0C9
:10350000161617061806991FF1CF869571056105E5
:1035100008940895E894BB2766277727CB0197F98D
:103520000895F999FECF92BD81BDF89A992780B58B
:103530000895262FF999FECF1FBA92BD81BD20BDF7
:103540000FB6F894FA9AF99A0FBE01960895052ECF
:1035500097FB1EF400940E94BE1A57FD07D00E94EC
:10356000101B07FC03D04EF40C94BE1A50954095E6
:10357000309521953F4F4F4F5F4F0895909580951F
:10358000709561957F4F8F4F9F4F08950E94321B1A
:10359000A59F900DB49F900DA49F800D911D1124A7
:1035A0000895B7FF0C94C61A0E94C61A821B930B8B
:1035B00008952F923F924F925F926F927F928F92D7
:1035C0009F92AF92BF92CF92DF92EF92FF920F93B2
:1035D0001F93CF93DF93CDB7DEB7CA1BDB0B0FB6BC
:1035E000F894DEBF0FBECDBF09942A883988488879
:1035F0005F846E847D848C849B84AA84B984C8840F
:10360000DF80EE80FD800C811B81AA81B981CE0F05
:10361000D11D0FB6F894DEBF0FBECDBFED010895EA
:10362000A1E21A2EAA1BBB1BFD010DC0AA1FBB1FC6
:10363000EE1FFF1FA217B307E407F50720F0A21B38
:10364000B30BE40BF50B661F771F881F991F1A94A5
:1036500069F760957095809590959B01AC01BD01CF
:10366000CF010895A29FB001B39FC001A39F700D29
:10367000811D1124911DB29F700D811D1124911D7A
:1036800008950E94701A88F09F5798F0B92F9927D3
:10369000B751B0F0E1F0660F771F881F991F1AF03D
:1036A000BA95C9F714C0B13091F00E948A1AB1E0FE
:1036B00008950C948A1A672F782F8827B85F39F0FD
:1036C000B93FCCF3869577956795B395D9F73EF4D6
:1036D00090958095709561957F4F8F4F9F4F08957E
:1036E0000E94B01B90F09F3748F4911116F00C9493
:1036F0008B1A60E070E080E89FEB089526F41B16BB
:10370000611D711D811D0C94871B0C94A21B8823C5
:1037100071F4772321F09850872B762F07C066230A
:1037200011F499270DC09051862B70E060E02AF0CB
:103730009A95660F771F881FDAF7880F96958795F9
:1037400097F908959F3F31F0915020F48795779530
:103750006795B795880F911D9695879597F9089568
:103760000E94701AA0F0BEE7B91788F4BB279F38F3
:1037700060F41616B11D672F782F8827985FF7CF52
:10378000869577956795B11D93959639C8F30895F9
:10379000AA1BBB1B51E107C0AA1FBB1FA617B70777
:1037A00010F0A61BB70B881F991F5A95A9F7809593
:1037B0009095BC01CD01089597FB072E16F4009457
:1037C00007D077FD09D00E94C81B07FC05D03EF446
:1037D000909581959F4F0895709561957F4F0895BD
:1037E000EE0FFF1F0590F491E02D0994CF93DF9326
:1037F0008230910510F482E090E0E0913D08F09174
:103800003E0820E030E0C0E0D0E0309711F1408188
:10381000518148175907C0F04817590761F4828150
:103820009381209719F09B838A832BC090933E0845
:1038300080933D0826C02115310519F04217530722
:1038400018F49A01BE01DF01EF010280F381E02D3F
:10385000DCCF2115310509F1281B390B2430310546
:1038600090F412968D919C9113976115710521F03A
:10387000FB019383828304C090933E0880933D08AC
:10388000FD01329644C0FD01E20FF31F8193919335
:10389000225031092D933C933AC020913B0830913E
:1038A0003C08232B41F420911B0130911C013093E3
:1038B0003C0820933B082091190130911A012115F1
:1038C000310541F42DB73EB740911D0150911E01C5
:1038D000241B350BE0913B08F0913C08E217F307FD
:1038E000A0F42E1B3F0B2817390778F0AC014E5F70
:1038F0005F4F2417350748F04E0F5F1F50933C0869
:1039000040933B088193919302C0E0E0F0E0CF0147
:10391000DF91CF9108950F931F93CF93DF9300977B
:1039200009F48CC0FC0132971382128200913D0889
:1039300010913E080115110581F420813181820F1B
:10394000931F20913B0830913C082817390779F5DF
:10395000F0933C08E0933B0871C0D80140E050E090
:10396000AE17BF0750F412962D913C911397AD01FD
:103970002115310509F1D901F3CF9D01DA01338316
:10398000228360817181860F971F8217930769F4E4
:10399000EC0128813981260F371F2E5F3F4F31837D
:1039A00020838A819B8193838283452B29F4F09322
:1039B0003E08E0933D0842C01396FC93EE931297A5
:1039C000ED01499159919E01240F351FE217F3072C
:1039D00071F480819181840F951F029611969C93BA
:1039E0008E938281938113969C938E931297E0E03D
:1039F000F0E0D80112968D919C911397009719F0E1
:103A0000F8018C01F6CF8D919C9198012E5F3F4F6C
:103A1000820F931F20913B0830913C0828173907EB
:103A200069F4309729F410923E0810923D0802C0C4
:103A30001382128210933C0800933B08DF91CF91D0
:103A40001F910F910895A0E0B0E0E9E2FDE10C9430
:103A5000DD1AEC01009721F4CB010E94F61BB8C0DF
:103A6000FC01E60FF71F9C0122503109E217F30712
:103A700008F4ACC0D9010D911C91119706171707D6
:103A8000B0F00530110508F49FC0C80104978617EF
:103A9000970708F499C002501109061B170B0193F0
:103AA00011936D937C93CF010E948B1C8DC05B01A1
:103AB000A01AB10A4C01800E911EA0913D08B09150
:103AC0003E0840E050E0E12CF12C109709F44AC088
:103AD000A815B905D1F56D907C901197630182E02E
:103AE000C80ED11CCA14DB0480F1A3014A195B097A
:103AF0006A0182E0C80ED11C1296BC9012971396F0
:103B0000AC91B5E0CB16D10440F0B282A3835183CF
:103B10004083D9016D937C930AC00E5F1F4FC30190
:103B2000800F911FF90191838083EB2DFA2FE1140F
:103B3000F10431F0D7011396FC93EE93129744C031
:103B4000F0933E08E0933D083FC08D919C91119702
:103B50004817590708F4AC017D0112960D90BC91ED
:103B6000A02DB3CF80913B0890913C088815990512
:103B7000E1F446175707C8F48091190190911A0192
:103B8000009741F48DB79EB740911D0150911E01E1
:103B9000841B950BE817F907C8F4F0933C08E093F1
:103BA0003B08F901718360830FC0CB010E94F61BB3
:103BB0007C01009759F0A801BE010E94F21DCE01C0
:103BC0000E948B1CC70104C0CE0102C080E090E0BF
:103BD000CDB7DEB7EEE00C94F91A81E090E0F894EE
:103BE0000C94021EFB01DC0102C001900D924150B9
:103BF0005040D8F70895FB01DC0101900D920020A0
:103C0000E1F7089515E0C0EAD5E004C0FE010E9486
:0E3C1000F01B2196C13AD107C9F7F894FFCFF7
:103C1E0001000100800080000100E10000000000B2
:103C2E0000FFFFFFFF0100000000003F08800000C2
:103C3E00000000000001000200040000000000A0CF
:103C4E000EA30BC10E3D0F5B0FB60E0000000082DF
:103C5E0008CB05B118FCFF0000F21800C1808100EE
:103C6E0000005041555345004C564C3A0053636F7B
:103C7E0072650078002B00546F700047414D45006F
:103C8E004F56455200496E737472756374696F6E48
:103C9E00733A205075736820412B44506164207430
:103CAE006F206D617463682033206F72206D6F72A8
:103CBE006520626C6F6F70732E2053636F72652078
:103CCE006173206D75636820617320796F75206351
:103CDE00616E20756E74696C20796F7520676574DE
:103CEE00206F7574206F662074696D65206F722069
:103CFE00626C6F636B65642077697468206E6F20E9
:103D0E006D6F7265206D61746368732E2047616DEF
:103D1E0065206279204665726E616E646F204A6519
:103D2E0072657A20323031372E205468616E6B7393
:103D3E0020746F2040637261697420666F72207404
:103D4E0068652066756E6E79206E616D652E2056E3
:103D5E00657273696F6E20312E20456E6A6F792100
:103D6E002121004E494345004752454154004249E6
:103D7E0049494700574F57004F4D472121005741A2
:103D8E004B4121212100574841543F3F00434F4DA5
:063D9E0045204F4E00001D
:00000001FF
